:020000040800F2
:10000000C00E00204D0200084F17000865160008BA
:100010004D1700085F050008AD1A00080000000039
:100020000000000000000000000000005117000860
:10003000F5050008000000003D0300085317000804
:1000400067020008670200086702000867020008EC
:1000500067020008670200086702000867020008DC
:1000600067020008670200086702000867020008CC
:1000700067020008670200086702000867020008BC
:10008000670200086702000867020008000000001D
:1000900000000000000000000000000067020008EF
:1000A000670200086702000867020008670200088C
:1000B000670200086702000867020008670200087C
:1000C000670200086702000867020008670200086C
:1000D00067020008A11A000867020008000000007B
:1000E00067020008670200086702000800000000BD
:1000F000000000000000000000000000670200088F
:10010000000000006702000867020008670200089C
:1001100000000000000000000000000000000000DF
:10012000670200086702000861050008670200080E
:10013000670200080000000000000000000000004E
:10014000000000000000000000000000670200083E
:1001500067020008670200086D05000867020008D2
:1001600067020008670200080000000000000000AD
:10017000000000000000000000000000000000007F
:1001800000000000670200080000000000000000FE
:10019000670200086702000800F002F800F03CF86F
:1001A0000AA090E8000C82448344AAF10107DA45D2
:1001B00001D100F031F8AFF2090EBAE80F0013F0E8
:1001C000010F18BFFB1A43F001031847402C000031
:1001D000602C0000103A24BF78C878C1FAD85207C2
:1001E00024BF30C830C144BF04680C6070470000B1
:1001F0000023002400250026103A28BF78C1FBD830
:10020000520728BF30C148BF0B6070471FB502F0CE
:10021000E7FD1FBD10B510BD00F067F91146FFF7EF
:10022000F5FF01F083FC00F085F903B4FFF7F2FF5E
:1002300003BC00F08DF90000002806D0B0FA80F170
:100240004FF02000A0EB010070477047094880473D
:1002500009480047FEE7FEE7FEE7FEE7FEE7FEE7A8
:10026000FEE7FEE7FEE7FEE704480549054A064BC0
:1002700070470000F117000899010008C00800202D
:10028000C00E0020C00A0020C00A0020EFF310803A
:1002900072B6704780F3108870473C4908603C494B
:1002A0004FF0000008603B494FF0010008603A48F9
:1002B00002684FF070414FF4700341EA030141EAD4
:1002C00002010160344802684FF0704141EA0201C6
:1002D0004FF4700141EA02010160304801684FF4B7
:1002E000700241EA02010160BFF34F8FBFF36F8FCD
:1002F0002B480068006880F308884FF0000080F306
:100300001488BFF36F8F27484FF080510160BFF30F
:100310004F8FBFF36F8F62B661B670471D4A136887
:10032000012B04D04FF001031360194A1060174AE3
:1003300011601C484FF080510160704715480168FA
:1003400001B34FF0000101601148036863B1EFF39E
:100350000981BFF36F8F1EF0100F08BF21ED108AC7
:1003600021E9F04F00680160084909680968B1E8AF
:10037000F04F1EF0100F08BFB1EC108A81F309880E
:10038000BFF36F8F4EF0040E70470000380000205E
:10039000340000203C00002020ED00E088ED00E06B
:1003A00008ED00E004ED00E053EA020C00F0698083
:1003B0002DE9F04B4FF00006002B1FBFB3FA83F579
:1003C00003FA05F424FA05F65E4012BF1643B2FAAA
:1003D00082F502FA05F4C5F120051EBF22FA05FCDC
:1003E00044EA0C04203556EA044C4FEA144418BF82
:1003F000641C4FF000084FF00009904271EB030CB1
:1004000039D3002919BFB1FA81F701FA07F6B0FA1A
:1004100080F700FA07F6C7F120071EBF20FA07FC95
:1004200046EA0C062037B6FBF4FCA7EB0507103FA5
:1004300007F01F0BCBF120060CFA0BFB2CFA06F68B
:1004400044BFB3460026202FA4BF5E464FF0000BEA
:100450005BEA060C08BF4FF0010B19EB0B09ABFB75
:10046000027C48EB0608C01B06FB02CC0BFB03CC4E
:1004700071EB0C01C1E70B46024641464846BDE818
:10048000F08B13B54FF000004FF00001AFF3008088
:10049000BDE81C4070474FF0000200B5134694467B
:1004A0009646203922BFA0E80C50A0E80C50B1F1CC
:1004B0002001BFF4F7AF090728BFA0E80C5048BFE0
:1004C0000CC05DF804EB890028BF40F8042B08BF7E
:1004D000704748BF20F8022B11F0804F18BF00F87A
:1004E000012B7047704770477047754600F02CF835
:1004F000AE4605006946534620F00700854618B011
:1005000020B5FFF7B1FEBDE820404FF000064FF0E8
:1005100000074FF000084FF0000B21F00701AC4638
:10052000ACE8C009ACE8C009ACE8C009ACE8C00957
:100530008D46704710B50446AFF300802046BDE8F5
:100540001040FFF772BE00000048704760080020AE
:1005500001491820ABBEFEE7260002007047FEE707
:10056000014800F0A5B8000058050020014800F03F
:100570009FB80000B805002001681823CAB2103ADD
:10058000B2FBF3F2054B6FF30901032A9B5CC365D1
:1005900000D9091D8165084670470000EA2D000852
:1005A00010B5014600208B698A6A4FF0C07453B1C0
:1005B000B3F5005F15D072B1012A0CD0022A0AD01F
:1005C000032A09D104E01AB1012A06D0022A03D174
:1005D000C96AC90100D5012010BDC96AA142FAD07B
:1005E00010BD002AF7D0012AF2D0022AF3D0032A44
:1005F000F3D010BD704772B6FEE72DE9F041044616
:10060000876D00F09FFA064694F835000025022811
:1006100006D08020606584F834500120BDE8F08168
:100620002068016821F0160101602068416921F00D
:1006300080014161206C08B9A06C20B1206801687C
:1006400021F0080101602068016821F001010160CA
:100650000CE000F077FA801B052807D920206065A0
:10066000032084F8350084F83450D7E72068006808
:10067000C007EED194F85C103F208840B86001209C
:1006800084F8350084F834500020C7E790F835101E
:10069000022903D08021416501207047052180F89F
:1006A00035100068016821F00101016000207047E9
:1006B0002DE9F84304464FF00009CDF80090634857
:1006C0004FF41651A56D0068B0FBF1F72E6894F851
:1006D0005C10082000FA01F131420FD021680A684D
:1006E00052070BD50A6822F004020A6094F85C10E5
:1006F0008840A860606D40F00100606594F85C106F
:100700004FF0010808FA01F0304208D02168496929
:10071000090604D5A860606D40F00200606594F899
:100720005C1004208840304208D02168096889079D
:1007300004D5A860606D40F00400606594F85C101A
:1007400010208840304218D021680968090714D564
:10075000A86020680168490304D50068000308D533
:10076000A16C07E00168C90503D4016821F0080104
:100770000160216C09B12046884794F85C10202064
:100780008840304231D021680968C9062DD5A8605B
:1007900094F8350005282068016806D0490347D53C
:1007A000006800031DD4616C1CE021F0160101609B
:1007B0002068416921F080014161206C08B9A06C7A
:1007C00020B12068016821F00801016094F85C10F4
:1007D0003F208840A86084F8358084F83490216DEB
:1007E0001FE0E16B09B120468847606D00282BD0DF
:1007F000606DC00714D0052084F8350020680168BA
:1008000021F0010101600098401C0090B84203D81B
:1008100020680068C007F6D184F8358084F83490E9
:10082000E16C002910D001B02046BDE8F043084734
:100830000168C905D5D4016821F01001016084F870
:10084000358084F83490CCE7BDE8F88314000020AC
:100850002DE9F041044600F075F906465CB102202E
:1008600084F83500002584F834502068016821F0B0
:10087000010101600DE00120BDE8F08100F062F9A6
:10088000801B052805D920206065032084F83500E9
:10089000F2E720680068C007F0D12268116820489C
:1008A0000140D4E901031843D4E903363343184324
:1008B00063691843A3691843E3691843236A18431B
:1008C0000843616A042903D1D4E90B13194308438F
:1008D000106020684069666A20F0070130460E43C8
:1008E000012704280CD1A06A0643E06A40B12046E3
:1008F000FFF756FE20B14020606584F83570BAE7F6
:10090000206846612046FFF737FE94F85C203F21BF
:1009100091408160656584F835700020ACE7000087
:100920003F8010F070B5044600F00CF90546601CDD
:1009300002D004480078044400F004F9401BA042AF
:10094000FAD370BD080000202DE9F84FDFF8B8A1F8
:100950000022012403254FF00F090AF1040BAAF12C
:10096000040E00BF0B6804FA02F63340B34273D1A1
:100970000F7907F00307012F01D0022F16D18768E6
:100980004FEA420805FA08FC27EA0C07D1F80CC028
:100990000CFA08FC4CEA070CC0F808C04768B743DB
:1009A0000E79C6F3001696403E4346600E79F64334
:1009B000B6070DD0C768560005FA06FC27EA0C07F3
:1009C000D1F808C00CFA06FC4CEA070CC0F80CC0C1
:1009D0000E7906F00306022E10D1D60800EB860829
:1009E000D8F8206057074FEAD76C09FA0CF7BE43D6
:1009F0000F6907FA0CF73743C8F8207006684FEA0A
:100A0000420C05FA0CF7BE430F7907F0030707FA0B
:100A10000CF7374307604E6816F4403F6DD03B4EED
:100A2000376847F480473760366822F0030706F4DA
:100A300080460096364E07EB060CDCF808689707F0
:100A40003F0F09FA07F826EA0806DFF8C880404594
:100A500003D14FF000081EE04FE0DFF8BC804045B6
:100A600002D14FF0010816E0DFF8B080404502D116
:100A70004FF002080FE0DFF8A880404502D14FF0A8
:100A8000030808E0DFF89C80404502D14FF00408DD
:100A900001E04FF0070808FA07F848EA0608CCF822
:100AA0000888DAF800605746D1F804C09E435FEA30
:100AB000CC2C00D51E433E60DBF800605F46D1F8C9
:100AC00004C09E435FEA8C2C00D51E433E60DEF8D6
:100AD00000607746D1F804C09E435FEA8C3C00D5A5
:100AE0001E433E60084F083F3E68D1F804C09E4355
:100AF0005FEACC3C00D51E433E60521C102AFFF436
:100B000031AFBDE8F88F0000083C01404438024096
:100B10000030014000000240000402400008024092
:100B2000000C024000100240426921EA02030A4020
:100B300043EA0241816170470AB18161704709044B
:100B4000FBE70000014880687047000008000020B3
:100B500002488168027811448160704708000020D3
:100B60000B4810B5016841F400710160016841F45F
:100B700080610160016841F480710160032000F030
:100B80006FF80F2000F006F800F024F8002010BDE8
:100B9000003C024070B50D4D04464FF47A71287840
:100BA000B1FBF0F00A490968B1FBF0F000F00CFB72
:100BB00048B9102C07D200222146501E00F030F810
:100BC00000206C6070BD012070BD00000800002096
:100BD000140000200A4808B5016841F48041016012
:100BE000006800F4804000900548001F016841F053
:100BF00080510160006800F08050009008BD000046
:100C000044380240002809DB00F01F020121914016
:100C10004009800000F1E020C0F80011704700009A
:100C2000F0B40E4B1B680C46C3F30223C3F1070557
:100C3000042D00D90425191D072901D2002300E045
:100C4000DB1E012606FA05F1491E214099409E400F
:100C5000761E16403143F0BC00F029BF0CED00E0D9
:100C6000064900F0070208684FF6FF03184040EA03
:100C70000220034A10430860704700000CED00E0BA
:100C80000000FA052DE9F0470E46050065D0DFF8B3
:100C90001481D8F80000F7B200F00700B04207D284
:100CA00088F80070D8F8000000F00700B04254D176
:100CB00028683D4C810712D5400703D5206840F4D1
:100CC000E05020602878000703D5206840F4604099
:100CD00020602068A96820F0F00008432060287890
:100CE000C0072DD0304968680839012812D0022881
:100CF00013D0032811D00968890700292DDA21684B
:100D000021F0030101432160FFF71CFF814641F2FE
:100D1000883A0EE009688903EFE709688901ECE782
:100D2000FFF710FFA0EB0901514502D90320BDE8F0
:100D3000F0872068696800F00C00B0EB810FEFD1FC
:100D4000D8F80010404601F00701B14207D90770FA
:100D5000006800F00700B04201D00120E7E72878E2
:100D6000400705D52068E96820F4E050084320607A
:100D70002878000706D52068296920F4604040EAF9
:100D8000C100206000F038F82168084AC1F303115F
:100D9000515CC8400649086006480068FFF7FAFE43
:100DA0000020C4E7003C024008380240F22D000851
:100DB000140000200C000020044805490068096860
:100DC000044AC1F38221515CC840704714000020DE
:100DD00008380240022E00080448054900680968E6
:100DE000044AC1F34231515CC840704714000020EE
:100DF00008380240022E0008154810B5006810F0AF
:100E00000C02144813D01449042A0FD0082A0ED11A
:100E10000F4C241F2268236802F03F025B0207D5B3
:100E20002068C0F38810A0FB010106E0084610BD51
:100E30002168C1F38811A1FB00010023FFF7B4FA78
:100E40002168C1F30141491C4900B0FBF1F010BD1C
:100E5000083802400024F40040787D012DE9F84F65
:100E600004006ED02078DFF84C93C007A9F1040588
:100E70004AD009F104000168C1F38101012908D0B9
:100E80000068C0F3810002280AD1D9F800004002AE
:100E900006D52868800337D560680028E1D033E0A4
:100EA0006068B0F5803F10D0B0F5A02F286810D052
:100EB00020F480302860286820F480202860606852
:100EC000A8B1FFF73FFE06460DE0286840F48030E9
:100ED000F4E740F480202860F7E700BFFFF732FE18
:100EE000801B642873D828688003F7D50CE0FFF7CF
:100EF00029FE064605E000BFFFF724FE801B64289C
:100F0000F0D828688003F7D42078DFF8AC82800717
:100F10004FF0000A3ED5A748001D016811F00C0FE4
:100F200008D00068C0F3810002280BD1D9F8000076
:100F3000400207D42868800716D5E068012800D150
:100F400012E033E1E068B8B10120C8F80000FFF713
:100F5000F9FD064605E000BFFFF7F4FD801B0228FF
:100F6000C0D828688007F7D52868216920F0F800E4
:100F700040EAC10028600DE0C8F800A0FFF7E2FDDC
:100F8000064604E0FFF7DEFD801B02281FD8286814
:100F90008007F7D42078000722D5864F87486169FB
:100FA000703771B101210160FFF7CCFD064604E006
:100FB000FFF7C8FD801B022809D838688007F7D5DD
:100FC0000EE0C0F800A0FFF7BDFD064605E082E098
:100FD000FFF7B8FD801B02287DD838688007F7D45A
:100FE0002078400768D5DFF8CCB100270BF13C0B27
:100FF000DBF80000C0000BD4DBF8001041F080519A
:10100000CBF80010DBF80000012700F080500090C2
:101010006B4E3068C00510D4306840F4807030608A
:10102000FFF790FD009005E0FFF78CFD0099401A56
:10103000022850D83068C005F6D55E4EA0686C36E0
:1010400001280FD00528306810D020F00100306052
:10105000306820F004003060A068B8B1FFF772FD7E
:1010600000900FE0306840F00100F4E740F0040029
:101070003060F7E7FFF766FD0099411A41F28830CA
:10108000814266D830688007F4D50EE0FFF75AFD3C
:10109000009007E0FFF756FD0099411A41F28830B1
:1010A000814256D830688007F4D42FB1DBF80010A5
:1010B00021F08051CBF80010A069C8B33D49091D4B
:1010C0000968C1F3810102294AD00228504607D09D
:1010D000C8F8600000E03CE0FFF734FD04463BE068
:1010E0004746C8F86000FFF72DFD064605E000BF43
:1010F000FFF728FD801B02282BD828688001F7D431
:10110000D4E907010843A16A2E4A490802EB0141CC
:10111000626A41EA8211084394F82C1040EA0161A6
:10112000C9F8001001203866FFF70CFD044606E000
:101130003EE000BFFFF706FD001B022809D8286823
:101140008001F7D534E000BFFFF7FCFC001B02284C
:1011500002D90320BDE8F88F28688001F4D427E085
:101160000128F7D0D9F80000E26900F4800191422B
:101170001CD1226A00F03F01914217D147F6C0719D
:10118000626A0140B1EB821F10D1A26A4FF0FF33B7
:1011900000F4403103EB5202B1EB024F06D194F858
:1011A0002C1000F07060B0EB016F01D00120D1E78E
:1011B0000020CFE70438024000004742800E47423B
:1011C000007000400000FFFF10B5401EB0F1807FAE
:1011D00001D3012010BD4FF0E02460610F216017A2
:1011E00000F065FC0020A06107202061002010BDF8
:1011F00070477047F8B5016804460868CA684B69CB
:1012000010F00F0F4FF0000559D003F0010602F463
:101210009077374365D0C10705D0D10503D5616C00
:1012200041F001016164410705D5D90703D0616C24
:1012300041F002016164810705D5D90703D0616CD3
:1012400041F004016164010707D502F02001314338
:1012500003D0616C41F008016164616C00293AD0EF
:10126000800604D5900602D5204600F0F7FA2068E3
:101270004069616CC0F38010090700D460B3204658
:1012800000F0C5FA20684069400621D52068143076
:1012900050E8001F21F0400140E80012002AF5D17B
:1012A000E06BA8B172490165E06BFFF7EFF9002828
:1012B00011D0E06B016D01B0BDE8F0400847830636
:1012C0000FD593060DD52046BDE8F84000F0C6BA0C
:1012D0002046FFF78EFFF8BD2046FFF78AFF6564C2
:1012E000F8BD266B2023012E7ED1C6067CD5D606FE
:1012F0007AD508684868009048694FF002064006B1
:101300004DD5E26B106840684FF480770004000C04
:101310003AD0A18D814237D9E085D069B8422DD02D
:1013200020680C3050E8001F21F4807140E8001262
:10133000002AF5D12068143050E8001F21F0010187
:1013400040E80012002AF5D12068143050E8001F50
:1013500021F0400140E80012002AF5D184F8423023
:10136000256320680C3050E8001F21F0100140E890
:101370000012002AF5D1E06BFFF73FF96663A08DFC
:10138000E18D401A81B206E0A18D8142A8D1D069D9
:10139000B842A5D166632046FFF72AFFF8BDA08DAD
:1013A000E18D401A81B2E08D0028F7D00029F5D0F8
:1013B00020680C3050E8002F22F4907240E800279B
:1013C000002FF5D12068143050E8002F22F00102E0
:1013D00040E80027002FF5D184F8423025632068CB
:1013E0000C3050E8002F00E006E022F0100240E848
:1013F0000023002BF3D1CDE705062BD5150629D503
:1014000094F841002128C9D1A068B0F5805F01D1CE
:101410002069B0B1206A411C2162216800784860CF
:10142000E08C401E0004000CE084B7D12068C16845
:1014300021F08001C1602068C16841F04001C160B5
:10144000F8BD206A0088C0F308004860206A801C4C
:101450002062E5E74006F3D55006F1D5CA6820467C
:1014600022F04002CA6084F8413000F0FAF8F8BD7A
:101470000118000870B5040004D094F8410000255C
:1014800010B106E0012070BD84F84050204600F005
:1014900023F8242084F841002068C16821F4005119
:1014A000C160204600F03CFA2068016921F49041B7
:1014B00001612068416921F02A0141612068C16809
:1014C00041F40051C1606564202084F8410084F833
:1014D00042006563002070BD2DE9F04186B00646EC
:1014E00014216846FEF7D7FF3049306888425AD148
:1014F0002F480024016841F010010160006800F0ED
:10150000100005902A481438016841F0010101607B
:101510000068694600F0010005904FF4C06000903B
:101520000220CDE901040320039007200490214804
:10153000FFF70AFA214D20484FF000672860C5E9FF
:1015400001744FF48068C5E9034880156C61C5E9F2
:1015500006402C6228466C62FFF77AF908B1FFF763
:101560004AF8F563AE63154D134860357830E5E809
:1015700002074020A5E81101104845F814496030E1
:10158000AC61EC612C626C62FFF762F908B1FFF7A5
:1015900032F8B563002211462520AE63FFF740FB09
:1015A0002520FFF72FFB06B0BDE8F08100100140B9
:1015B00044380240000002404064024058050020C8
:1015C00070472DE9F843044690F8410098461646C6
:1015D0000D46202802D00220BDE8F88385B17EB1F7
:1015E00000206064212084F84100FFF7ABFAA68454
:1015F0008146E684A0682027B0F5805F02D003E032
:101600000120E9E7206910B12E4600250EE00026F2
:101610000CE08021204600F009FAA8B9C6B116F8FE
:10162000010B21684860E08C401EE084E08C4B4652
:101630004FF00002CDF800800028EAD14FF04001C1
:10164000204600F0F3F940B184F841700320C3E76D
:1016500035F8020BC0F30800E3E784F8417000207E
:10166000BAE77047FEE700000D4808B5016841F48D
:10167000800101600068002200F4800000901146A3
:101680003A20FFF7CDFA3A20FFF7BCFA00221146C4
:101690004620FFF7C5FABDE808404620FFF7B2BA7A
:1016A0003038024070B586B014216846FEF7F3FE6C
:1016B00016480024016841F004010160016801F04E
:1016C00004010591016841F080010160016801F0A9
:1016D00080010591016841F00101016000680C4E34
:1016E00000F001004FF400550590002229463046D5
:1016F000FFF722FA01200095CDE901046946304642
:101700000394FFF721F906B070BD000030380240A5
:10171000000802400C4810B50A4901604FF4E1315D
:101720004160002181600C22C160C0E90412816126
:10173000C161FFF79FFE002803D0BDE81040FEF70F
:101740005ABF10BD0010014010050020FEE7FEE763
:10175000704710B500F00CFEBDE81040FFF7F8B977
:1017600030B593B030216846FEF795FE14210CA8E1
:10177000FEF791FE1C480025016841F08051016090
:10178000006800F0805011901848016841F4404111
:1017900001600068022400F4404011900120009094
:1017A000000401908001CDE906400C2008906020E3
:1017B000CDE9090404200B906846FFF74FFB08B100
:1017C00072B6FEE70CA90F2081E831004FF480507B
:1017D000CDE90F0503210CA8FFF754FA002801D02A
:1017E00072B6FEE713B030BD4038024000700040D2
:1017F0000248016841F470010160704788ED00E023
:1018000010B5806B0021C185FFF7F3FC10BD0168A6
:101810000C3151E8002F22F4907241E80023002B94
:10182000F5D10168143151E8002F22F0010241E89E
:101830000023002BF5D1016B012909D101680C317E
:1018400051E8002F22F0100241E80023002BF5D1CF
:10185000202180F8421000210163704708B590F8FC
:101860004210222901D0022008BD82684FF4805323
:101870009A4201D1016921B1816A9A421BD04AB1D1
:101880000AE00268816A5268C2F308020A80816A2B
:10189000891C08E0026972B10268526802F07F0296
:1018A0000A70816A491C8162C18D491E0904090CB4
:1018B000C18503D01BE002685268F1E70168CA687D
:1018C00022F02002CA600168CA6822F48072CA60ED
:1018D00001684A6922F001024A61202180F8421021
:1018E00000214163026B012A03D0FFF769FE00204B
:1018F00008BD016301680C3151E8002F22F010028D
:1019000041E80023002BF5D101680A68D20602D510
:101910000A6849680091818DFFF76AFCE7E70000DB
:1019200070B5044600680169E26821F44051114332
:1019300001612169A068E2690843616911430843B4
:101940002168CA6849F20C639A430243CA6020685E
:101950004169A26921F44071114341613149206814
:10196000884202D03049884202D1FFF735FA01E0BF
:10197000FFF722FAE2690023192164253226B2F525
:10198000004F626828D0A0FB0101930F9200FEF780
:101990000BFD0146B0FBF5F06FF01802504301EB70
:1019A000800006EB0010B0FBF5F000F0F002B1FB98
:1019B000F5F002EB0012B1FBF5F06FF0180358439D
:1019C00001EB800006EB0010B0FBF5F000F00F001B
:1019D00021681044886070BDA0FB010192185B4132
:1019E000FEF7E2FC0146B0FBF5F00201B1FBF5F0B9
:1019F0006FF01803584301EB800006EBC000B0FB0A
:101A0000F5F000F0F80002EB4002B1FBF5F05843AE
:101A100001EB800006EBC000B0FBF5F000F0070022
:101A2000D6E7000000100140001401402DE9F84302
:101A3000984617460D460446089E24E0701C22D0A6
:101A4000FFF780F8A0EB0800B0421AD8CEB12068AA
:101A5000C168490717D5802D15D0402D13D00168D6
:101A6000C94309070FD4016800254068009020464B
:101A7000FFF7CDFE0820606484F840500120BDE8E7
:101A8000F8830320FBE72068006835EA000004D0F3
:101A90000020B842D2D00020F1E70120F9E7000091
:101AA0000148FFF7A7BB000010050020FEE709076B
:101AB000090E002804DB00F1E02080F800147047D4
:101AC00000F00F0000F1E02080F8141D70472DE9B0
:101AD000F0470746DDE909849A4615460E4604F1AB
:101AE0001400DDF8209000F024F9C4E90365C4E98E
:101AF0000179012184F81CA001FA0AF184F81DA0E3
:101B0000216270194A46394600F0CCFAC4F82480A4
:101B1000C4F828802060BDE8F0870246881A914208
:101B200000D2401E704700F0B7F8FCE70EB5FFF793
:101B300017F8FFF715FEFFF7B5FDFFF795FDFFF767
:101B4000E9FD00F0E3FC00221B4B1146022000F0EF
:101B5000DBF919484FF4FA741849CDE90014243020
:101B60004FF40075029000F190010C232A461448AE
:101B700000F040FB1048243000F0CAFB0F480E492B
:101B8000401C00906C31CDE901410B232A4601F540
:101B900012710C4800F02EFB07486C3000F0B8FBC7
:101BA00000F070F9084E2D012046FEF7BBFE2946D5
:101BB0003046FEF7B9FFF7E75C0000200000002088
:101BC0002D1C0008DD1B000800080240002804D07E
:101BD0004FF47A714843B0FBF1F070472DED028B62
:101BE00082B00478074E9FED088B4FF0FF352946F1
:101BF000706800F0A7F953EC182B05A0009400F0D2
:101C0000C0F8F4E70000002000000020856B32C01F
:101C100073656D6120726563762C20663D25662CA8
:101C2000206172673D307825780A00002DED028B27
:101C300082B005780D4F9FED0E8B0F4C4FF4005680
:101C40004FF4FA7831463846FEF76EFF53EC182B06
:101C50000AA0009500F095F8404600F08BF8606807
:101C600000F0E2F9606800F0DFF9EBE700080240FD
:101C700000000060B81E19400000002073656D610F
:101C80002073656E642C20663D25662C206172678A
:101C90003D307825780A000070B5FEF7F7FA044663
:101CA000084D202603E02868866100F039F80548D1
:101CB00000F050F80028F6D02046BDE87040FEF74E
:101CC000E9BA00002C0000202DE9F04117460C462F
:101CD00005000FD074B1FEF7D9FA0646204600F091
:101CE000ADF8022004F11401E0620FB1012F05D01C
:101CF00028460EE06FF00400BDE8F0812A4604E0BB
:101D0000277F037A9F4203D802461068A842F7D182
:101D1000104600F018F83046FEF7BCFA0020EBE75A
:101D2000D0E900124A60D0E9001211604060006002
:101D300070474060006070470268516002680A6046
:101D40000160486070474268116042684A604160C3
:101D5000086070470168814201D10120704700206E
:101D600070470246002100E0491C00689042FBD108
:101D70000846704710B5FFF729FFBDE8104000F096
:101D8000ADBA0FB4802170B5A0B025AB6846249AD7
:101D900000F0DEFB054600246E4603E0305D00F0F7
:101DA00007F8641CAC42F9DB20B070BC5DF814FB92
:101DB00001B54FF0FF33012269460248FFF701FCED
:101DC00008BD00001005002070B50A4D002400BFBA
:101DD00005EBC400FFF7ADFF641CE4B2202CF7D381
:101DE0000548FFF7A6FF044900201039C860486085
:101DF00070BD0000600700202C00002070B50400BA
:101E000017D0FEF743FA0546207F0A4901EBC000D0
:101E100004F11401FFF797FF0748216A8268114314
:101E200081600178491C01702846BDE87040FEF7CA
:101E300031BA70BD600700201C00002070B504009E
:101E40001BD0FEF723FA054604F11400FFF768FFE4
:101E5000207F0A4901EBC000FFF77CFF0100084822
:101E600003D0226A8168914381600178491E017024
:101E70002846BDE87040FEF70DBA70BD600700202F
:101E80001C00002010B50A4CA068FEF7D5F90949DE
:101E9000401E51F8300014386060017F61701021DD
:101EA000C162416A8162BDE81040FEF7F6B90000E8
:101EB0001C0000206007002010B5114CE0680028CD
:101EC0001DD1A068FEF7B8F9401E202817D20D4991
:101ED00051F8301060681439884210D000290ED0B3
:101EE000616020B1C26A102A01D10122C2621022AF
:101EF000CA620A7F6270BDE81040FEF70FBA10BDDB
:101F00001C000020600700202DE9F0411C46164609
:101F10000F46050012D08CB104F11400FFF709FF41
:101F200000202070012184F8221084F82360E583CA
:101F3000208460602081A783BDE8F0816FF00400F9
:101F4000FAE700002DE9F34704004FF0000509D03F
:101F500094F82200AF1F00285ED0207828B1281FF7
:101F6000BDE8FC876FF00400FAE7DFF8B8804FF0B7
:101F7000FF3900BFFEF78AF9064694F8220048B1FF
:101F8000A08B58B180B2401EA0833046FEF782F984
:101F90000020E5E73046FEF77DF93DE0019870B19D
:101FA00094F8232004F11400D8F80010FFF78CFEF9
:101FB0000198002816DD401C14D025B106E03046FB
:101FC000FEF768F926E000F0CDF90546D8F80000E4
:101FD00001AA0221303000F023FAD8F80000303096
:101FE00000F052FA3046FEF755F9FFF765FF94F816
:101FF000220088B101980028BCDD401CBAD000F056
:10200000B1F9064601462846FFF787FD01460198CB
:10201000814203D34846A3E73846A1E7401A354634
:102020000190A7E72000002070B5040008D094F8C4
:1020300022006FF0050630B1207830B1B01C70BDC1
:102040006FF0040070BD304670BDFEF71FF9054605
:1020500094F8220078B1A08BE18B88421FD2401CFB
:10206000A08304F11400FFF775FE40B12846FEF787
:1020700011F9002070BD2846FEF70CF9E3E760690E
:10208000A0F11404FFF74CFE0120E0622046FFF7A8
:10209000B5FE2846FEF7FEF8FFF70EFFE9E74FF022
:1020A000FF3070BD30B5002320F007001C464438D7
:1020B00040F823405B1CDBB2102BF9D34FF0807447
:1020C00004644262034AC0E90E216FF00202026218
:1020D00030BD00004522000810B50EA0FFF751FEEC
:1020E0000DA0FFF74EFE19A0FFF74BFE24A126A07E
:1020F000FFF747FE29A12FA0FFF743FE32A13BA027
:10210000FFF73FFE04A0FFF73CFEBDE8104001A032
:10211000FFF737BE0D0A00003D3D3D3D3D3D3D3DD5
:102120003D3D3D3D3D3D3D3D3D3D3D3D3D3D3D3DDF
:102130003D3D3D3D3D3D3D3D3D3D3D3D3D3D3D3DCF
:102140003D3D3D3D3D3D3D3D3D0D0A002020546F50
:1021500052544F53202D204C696768747765696726
:102160006874205265616C2D54696D65204F7065EF
:10217000726174696E672053797374656D0D0A001E
:10218000312E302E30000000202056657273696FAA
:102190006E202020203A2025730D0A004A616E200F
:1021A000323120323032362031333A31383A343617
:1021B0000000000020204275696C64204461746551
:1021C000203A2025730D0A00436F707972696768A1
:1021D0007420286329203230323620546F52544FF5
:1021E000532050726F6A65637400000020202573CD
:1021F0000D0A0000FEB5DDE90954089EB4B1A8B18E
:10220000A1B19AB16FF00307202B12D28DB10096C5
:10221000CDE90154FFF75BFC2B462246084904F147
:10222000300000F010F930B1B810FEBD6FF00400BE
:10223000FEBD3846FEBD8020E0620020FEBD0000ED
:102240005127000870B50E4C2068002816D0FEF704
:102250001DF805462068FFF7F1FD2068303000F0DA
:1022600043F921680820C86206481431FFF76BFD66
:102270002846FEF70FF8FFF71FFEFEE770BD0000CF
:10228000200000202C00002070B5FDF7FFFF114C4E
:102290000646114D6068007F05EBC000FFF761FD49
:1022A000012804D83046BDE87040FDF7F3BF6068F0
:1022B0001430FFF735FD6168087F143105EBC0006D
:1022C000FFF741FD3046FDF7E5FFBDE87040FFF741
:1022D000F3BD00001C0000206007002031B50B4C4E
:1022E0002068FFF7ABFD20680221C162303000F0AA
:1022F000FBF820686A460221303000F091F820682F
:10230000303000F0C1F8FFF7D7FD38BD20000020C5
:1023100070B504001CD0E06A20281CD0FDF7B6FF81
:102320000546607F20770121E162616AA1620B4965
:10233000226A0B681A430A60094901EBC00004F1E4
:102340001401FFF700FD2846FDF7A4FF002070BD33
:102350006FF0040070BD4FF0FF3070BD240000200E
:10236000600700200148806870470000400000209E
:10237000114810B58168491C8160816819B9D0E99C
:102380000021C0E900120D480468002C12D0FDF7AE
:102390007DFFA16A491EA16205D0FDF77BFFBDE864
:1023A000104000F00DB8616AA162FDF773FFFFF7FE
:1023B0006BFFF4E710BD000040000020200000206B
:1023C0007CB56846FFF7B5FCFDF760FF0646134D88
:1023D0000CE02868A9680468606988420BD8204628
:1023E000FFF79EFC21466846FFF7A6FC2868FFF72A
:1023F000B1FC0028EDD03046FDF74CFF07E0009817
:102400000446FFF78DFCA16809B1E068884768467B
:10241000FFF7A0FC0028F2D07CBD000040000020A7
:1024200030B1012907D002290AD06FF006007047A9
:102430006FF0040070470AB1006910600020704717
:1024400011680161FAE72DE9F0411E4617460D4675
:10245000040009D045B1FFF76CFC0020C4E904601A
:10246000C4E90257BDE8F0816FF00400FAE700000C
:1024700010B50448FFF75DFC0248BDE81040083085
:10248000FFF757BC4C00002070B5040015D0FDF7D5
:10249000FDFE0546FDF7FAFE06462046FFF740FC26
:1024A0003046FDF7F7FE0F48816822690A446261F1
:1024B0008168914204D2036803E06FF0040070BDAC
:1024C0004368184603E04E69964203D808460168FF
:1024D0009942F8D12146FFF72FFC2846FDF7DAFE96
:1024E000002070BD4000002070B558B10446FDF7D3
:1024F000CDFE05462046FFF713FC2846FDF7CAFE31
:10250000002070BD6FF0040070BD00000EB5FFF735
:102510005BFCFFF7ADFF00200A4A05218DE80700AC
:10252000084903464FF4807248310748FFF762FEBE
:1025300018B906480068FFF7EBFEFFF7CDFD002055
:102540000EBD000018060020271B00081800002000
:102550002DE9FF4F45182DED048B8FB016468046B0
:1025600004460DF1300A4FF02D0B4FF00A096D1E95
:1025700007E0252813D0AC4202D200BF04F8010BBB
:10258000761C307808B1AC42F3D3002020700FB035
:10259000A4EB0800BDEC048B04B0BDE8F08F16F886
:1025A000010F642810D0732831D063283DD07828DB
:1025B00044D066285ED0AC4202D2252004F8010B3C
:1025C000AC42DDD23078D9E7169802C816900020C8
:1025D000002904DAAC4201D204F801BB4942524658
:1025E0004FEA090391FBF3F703FB171791FBF3F194
:1025F00030371754401C29B10C28F3DB02E0115C82
:1026000004F8011B401EBBD3AC42F8D3B8E71699BF
:1026100001C9169103E000BF04F8011B401C0178BA
:102620000029ADD0AC42F7D3AAE71698AC4210F817
:10263000041B1690A4D204F8011BA1E716980DF113
:10264000200304C81690002002F00F010A2901DAC5
:10265000303100E057311954401C120905D01028C0
:10266000F2DB02E0195C04F8011B401E88D3AC4287
:10267000F8D385E716989FED320BC01D20F00700B8
:1026800053EC102BB0EC028B169051EC180B00F0B1
:1026900077F909D2AC4201D204F801BB51EC180B16
:1026A00000F067F841EC180B51EC180B00F022F920
:1026B000074600F04EF953EC182B00F09BFA41EC62
:1026C000100B00204A46694697FBF2F302FB137396
:1026D00097FBF2F730330B54401C2FB12028F3DB6B
:1026E00002E00A5C04F8012B401E01D3AC42F8D38F
:1026F000AC4202D22E2004F8010B00279FED129B62
:102700001BE000BF53EC192B51EC100B00F074F9D7
:1027100041EC180B00F0EEF8AC4203D200F13001AE
:1027200004F8011B00F015F953EC182B00F062FAC5
:1027300041EC100B7F1C062F9BDAAC42E2D31FE763
:102740000000000000000000000000000000244025
:1027500010B504000CD004F11400FFF7E1FA0120D9
:10276000E0622046FFF74AFBBDE81040FFF7A4BB3C
:1027700010BD81F00041704780F00040704721F0AB
:102780000041704720F000407047000010B591EA0A
:10279000030F48BF83F0004300F14082841A71EBBD
:1027A000030C05D2121943EB0C03001B61EB0C0167
:1027B000DFF824E14FEA1154A4EB135C1EEA430F47
:1027C00018BF9EEA445F73D023EA0E03DCF1200EAB
:1027D00021EA045143F4801332D322FA0CFE10EBA9
:1027E0000E0023FA0CFE41EB0E01CCF1200E03FA91
:1027F0000EFE10EB0E0051F10001B1F5801FCCF17F
:10280000200E32D201EB045112FA0EF2BDE8104054
:1028100058BF7047401C38BF5FEA420218BF70477C
:10282000002814BF20F0010041F100014FEA4103EC
:1028300013F5001F38BF7047A1F1C04100F0D4B9B3
:10284000012A43EB0302ACF1200CDCF11F0E32BF76
:102850004FF0000E23FA0CF310EB030041EB045190
:10286000B4EB115FD0D0A1EB045101F58011490800
:102870005FEA300001EB04510ED350F1000038BF85
:1028800012FA0EFE08D1BDE81040C9E7401C38BF5F
:102890005FEA4202CAD1C3E7BDE810404FEA4103F4
:1028A00013F5001F38BF7047A1F1C04100F09CB97B
:1028B0009EEA445F08D011EA5E0FBDE8104004BFF5
:1028C00001F0004100207047BDE8104070B500F0F5
:1028D0003DF900BF64FBBE3E0000E0FF491058BF59
:1028E000C1F140415B1058BFC3F140438B42EFF34D
:1028F000008070474FEA41034FEA5353A3F58063CA
:10290000D3F11E03C8BFD3F1210C0CDD4FF0004200
:1029100042EAC12242EA505232FA03FC8CEAE17CDC
:10292000ACEBE1707047102BC4BF0020704703F57B
:10293000787CBCF1FF3F04D06FF0004282EA2100B6
:10294000704770B500F002F949922480002070476A
:10295000F2E710F0004248BF4042B0FA80F310FAAC
:1029600003F10AD0C3F11D0303F580634FEA415020
:1029700002EB035202EBD12170474FF00000704789
:1029800051EA030C17D41CF5801F58BFBCF5801FFB
:1029900000F10680994218BF704708BF9042704707
:1029A00007D711F5801F58BF13F5801F19D499421E
:1029B0007047894270471CF5801F08D5BCF5801F01
:1029C000F7D58B4218BF704708BF824270474FF45B
:1029D000001C1CEB410F38BF1CEB430F01D28B4294
:1029E000704770B500F0B2F8922449004FF00051E2
:1029F0004FF08053FFF772BFDFF848C170B51CEA93
:102A0000111E1EBF1CEA13159EEA0C0F95EA0C0F4F
:102A100000F06F8081EA030423EA4C134EEAD47E6F
:102A200021EA4C1141F4801143F48013AE44A1FB20
:102A3000024CA0FB0365AEF17F7E361955EB0C0509
:102A4000A1FB034C4CF10003A0FB021C16EB0C068F
:102A5000654153F10003094218BF46F0010613F423
:102A6000007F0BD14FEA03314FEA0530340341EACE
:102A7000155140EA16506FF003020AE04FEAC321F5
:102A80004FEAC520F40241EA555140EA56506FF032
:102A9000020202EB2E4201EB025585EACE710AD00A
:102AA0005FEA440C18BF24F0004450F1000041F1EB
:102AB000000120EAD47040F2FE7C624500D270BD75
:102AC000A84214BF4FF080444FF04044002E08BF8E
:102AD0000024BEF1806FA8BFA1F1C041BDE87040E5
:102AE00080F282804FF0000001F1C04101F000410E
:102AF00070479EEA0C0F0CEA131518BF95EA0C0FED
:102B000006D04FF0000081EA030E0EF0004170BDC8
:102B100000F01CF88900013E00F007B800F009B889
:102B20004FEA430C5FEA5C5C08D081EA030100F0E5
:102B30005BB84FEA410C5FEA5C5CF6D14FF00000F5
:102B4000014970470000FF070000F87F0EF1020EF8
:102B50002EF0030E5EF8046B364205D4012A43EBD7
:102B6000030515F5001F12D8012841EB010C1CF5D7
:102B7000001F0CD80ED14FEAD17C15F5001F0CEBCD
:102B80004C0C0CF1020C08BF4CEBD37C04E04FF072
:102B9000080C01E04FEAD37C0CEB4C0526FA05F655
:102BA00006F00706B6F1040C06D20EEB860CBDE863
:102BB00070404CF0010C6047DFE80CF0090B02029A
:102BC0004FF000414FF00000A1F5002170BD194603
:102BD0001046012851EB010418BFD4F5001484BF3E
:102BE000002001F0004170BD0808A0F500114FEA77
:102BF0003101704791EA030F10B581F000413FF5B4
:102C0000CDAD83F0004300F009B8000010B591EAA3
:102C1000030F48BF83F000433FF5C0AD841A71EB4A
:102C2000030C07D212198CF0004C43EB0C03001B71
:102C300061EB0C01DFF8A4E14FEA1154A4EB135C43
:102C40001EEA430F18BF9EEA445F00F0B08023EAFB
:102C50006E03524221EA0451C3EB6E0338BF5B1E80
:102C6000DCF1200E25D322FA0CFE10EB0E0043FA05
:102C70000CFE41EB0E01CCF1200E03FA0EFE10EB20
:102C80000E0051F10001CCF1200E29D412FA0EF2FF
:102C900001EB0451BDE8104058BF7047401C1CBFF9
:102CA000B2F1004F704700280CBF491C20F0010012
:102CB000704712EB020E43EB030218BF4FF0010EF8
:102CC0004EEA4202ACF1200CDCF11E0E54D943FA5C
:102CD0000CFE10EB0E0051F1FF31CCF11E0ED5D5DC
:102CE0000EF1010E12FA0EFE404141EB010101EB23
:102CF000445C5FEA5C5C10D910EBDE7001EB0451C0
:102D000038BFBEF1004FBDE8104018BF7047002823
:102D10000CBF491C20F00100704730D24FEAD42C80
:102D200011F5001124F400641BD0B1FA81F20B3AC2
:102D3000A41AA41ED2F12003914030FA03F31943E0
:102D4000904001EBCC71002C01EB0451BDE8104028
:102D5000A8BF704701F1C0414FF0000001F00041F1
:102D60007047B0FA80F310FA03F100D110BDE41AF5
:102D7000173C4805C90AE4E701EB045110BD4910AE
:102D800001EB0451BDE810404FEA300002E04FF083
:102D9000000170474A0008BF0042F8D0B2F5001F9A
:102DA00028BF704701F000414FF0000070479EEAD5
:102DB000445F07D011EA5E0FBDE8104004BF002158
:102DC00000207047BDE8104070B5FFF7BFFE00BFA0
:102DD00040DFF63E83F00041104670470000E0FF00
:102DE0004FF04070E1EE100A704700061016000622
:102DF0001016000000000000000001020304060796
:102E00000809000000000102030400002C2E000845
:102E1000000000205C000000D4010008882E00089B
:102E20005C000020640E0000F0010008DEAD000030
:102E30005C00002001000000100000000000000005
:102E40000024F4001806002000000000000000002C
:102E50000000000000000000000000000000000072
:102E60000000000000000000000000004C000020F6
:102E700054000020000000000000000000000000DE
:082E800000000000000000004A
:040000050800019955
:00000001FF
